:100000001DC02CC02BC02AC029C028C027C026C0B4
:1000100025C024C023C0FDC021C0A6C01FC01EC073
:100020001DC01CC01BC01AC019C018C0AFC016C06C
:1000300015C014C013C012C011C010C011241FBEBF
:10004000CFEFD2E0DEBFCDBF21E0A0E0B1E001C044
:100050001D92AA30B207E1F70CD126C3D1CFCF93BE
:10006000DF9300D01F92CDB7DEB79A8389836B836D
:1000700085E990E020E1FC01208382E890E02B817B
:10008000222F30E0232F330F330BFC01208381E834
:1000900090E02B81FC01208385E890E028E0FC01C2
:1000A00020838AE390E02AE330E0F9012081206890
:1000B000FC0120830F900F900F90DF91CF91089556
:1000C000CF93DF93CDB7DEB728970FB6F894DEBF96
:1000D0000FBECDBF9A8389837C836B835E834D8300
:1000E00038872F8389819A812B813C81FC0132835F
:1000F000218389819A812D813E81FC013483238370
:1001000089819A812F813885FC0136832583289641
:100110000FB6F894DEBF0FBECDBFDF91CF9108952B
:10012000CF93DF9300D0CDB7DEB79A8389830F904A
:100130000F90DF91CF910895CF93DF9300D000D03F
:10014000CDB7DEB79A8389837C836B8389819A815B
:100150002B813C81FC01318320830F900F900F9005
:100160000F90DF91CF9108951F920F9200905F0042
:100170000F921124CF93DF93CDB7DEB7DF91CF91EC
:100180000F9000925F000F901F9018951F920F9292
:1001900000905F000F9211242F933F938F939F93B2
:1001A000EF93FF93CF93DF93CDB7DEB71AC080E80C
:1001B00090E0FC01908181E0943609F080E0882392
:1001C00081F0809100019091010121E0FC012083E8
:1001D0008BE390E02BE330E0F90120812068FC0103
:1001E000208386E890E0FC0180818095881F882725
:1001F000881F8823E1F6DF91CF91FF91EF919F91C6
:100200008F913F912F910F9000925F000F901F9060
:1002100018951F920F9200905F000F9211242F9358
:100220003F938F939F93EF93FF93CF93DF93CDB73C
:10023000DEB78BE390E02BE330E0F9012081226010
:10024000FC0120838BE390E02BE330E0F901208177
:100250002460FC012083DF91CF91FF91EF919F916A
:100260008F913F912F910F9000925F000F901F9000
:100270001895CF93DF93CDB7DEB7AA970FB6F89452
:10028000DEBF0FBECDBF64E3CE010196E8DECE0136
:100290000A9692D0CE014096C9D0CE01419631D176
:1002A000CE0189963DDF9E01275D3F4FAE01465F3F
:1002B0005F4FCE014196BC01CE01019601DF9E0148
:1002C000275D3F4FCE010A96B90198D0AE01475D38
:1002D0005F4F9E01205F3F4FCE014196B90130D163
:1002E000CE0189969E012F5F3F4FB90125DFCE01D8
:1002F00001969093010180930001CE010A9690939C
:10030000030180930201CE014096909305018093F2
:100310000401CE0141969093070180930601CE011E
:1003200089969093090180930801789489E390E07D
:10033000FC018081882F90E08170992721E0892B32
:1003400009F420E02223E1F086E690E026E630E0A2
:10035000F90120812D7FFC01208386E690E026E6CE
:1003600030E0F90120812160FC0120838BE390E0E3
:100370002BE330E0F90120812F77FC0120831BC0A3
:1003800086E690E026E630E0F90120812E7FFC0130
:10039000208386E690E026E630E0F90120812260A5
:1003A000FC0120838BE390E02BE330E0F901208116
:1003B000277FFC012083BACFCF93DF9300D0CDB746
:1003C000DEB79A83898388E290E028E230E0F90181
:1003D0002081FC01208389E290E029E230E0F901EC
:1003E0002081FC01208385E290E027E0FC0120834E
:1003F00000000F900F90DF91CF910895CF93DF937E
:1004000000D000D0CDB7DEB79A8389837C836B831D
:1004100089819A812B813C81FC01318320830F905B
:100420000F900F900F90DF91CF910895CF93DF93AE
:1004300000D0CDB7DEB79A8389838AE390E02AE3C0
:1004400030E0F90120812868FC0120838AE390E0F4
:100450002AE330E0F90120812E7FFC01208380E532
:1004600090E020E530E0F90120812360FC01208349
:1004700083E590E023E530E0F90120812360FC0171
:10048000208380E590E020E530E0F90120812068BC
:10049000FC01208380E590E020E530E0F901208137
:1004A0002062FC01208382E590E0FC01108286E559
:1004B00090E024E6FC0120838CE590E024E6FC013A
:1004C000208387E690E027E630E0F90120812F7C49
:1004D000FC01208387E690E027E630E0F9012081E7
:1004E0002F7CFC01208389E590E029E530E0F901CB
:1004F00020812160FC0120830F900F90DF91CF912C
:100500000895CF93DF9300D0CDB7DEB79A83898368
:1005100089819A8106969C014AE050E06AE070E089
:100520008AE090E031D089819A81FC01148289812E
:100530009A81FC0115820F900F90DF91CF91089561
:10054000CF93DF9300D000D000D0CDB7DEB79A8331
:1005500089837C836B835E834D8389819A812B8120
:100560003C81FC013183208389819A812D813E81E8
:10057000FC013383228326960FB6F894DEBF0FBEAC
:10058000CDBFDF91CF910895CF93DF93FB01E901B8
:100590001A821B821C821D82198218829F838E837D
:1005A000798768875B874A87BC016F5F7F4F8FEFD2
:1005B0009FE715D07D876C879F012F5F3F4F032EEC
:1005C000000C440B550B6FEF7FEF8FEF9FE31AD0BA
:1005D0002E873F87488B598BDF91CF91089597FBEA
:1005E000072E16F4009406D077FD08D027D007FC1C
:1005F00005D03EF4909581959F4F08957095619533
:100600007F4F0895052E97FB16F400940FD057FDE9
:1006100005D028D007FC02D046F408C0509540957C
:10062000309521953F4F4F4F5F4F0895909580959E
:10063000709561957F4F8F4F9F4F0895AA1BBB1BED
:1006400051E107C0AA1FBB1FA617B70710F0A61BD2
:10065000B70B881F991F5A95A9F780959095BC01F3
:10066000CD010895A1E21A2EAA1BBB1BFD010DC0EE
:10067000AA1FBB1FEE1FFF1FA217B307E407F50752
:1006800020F0A21BB30BE40BF50B661F771F881F2E
:10069000991F1A9469F760957095809590959B01C4
:1006A000AC01BD01CF010895F894FFCFFFFFFFFF1C
:1006B000FFFFFFFFFFFFFFFFFFFFFFFFFFFFFFFF4A
:1006C000FFFFFFFFFFFFFFFFFFFFFFFFFFFFFFFF3A
:1006D000FFFFFFFFFFFFFFFFFFFFFFFFFFFFFFFF2A
:1006E000FFFFFFFFFFFFFFFFFFFFFFFFFFFFFFFF1A
:00000001FF
